{
  "_format": "hh-sol-artifact-1",
  "contractName": "RoboPunksNFT",
  "sourceName": "contracts/RoboPunksNFT.sol",
  "abi": [
    {
      "inputs": [],
      "stateMutability": "payable",
      "type": "constructor"
    },
    {
      "anonymous": false,
      "inputs": [
        {
          "indexed": true,
          "internalType": "address",
          "name": "owner",
          "type": "address"
        },
        {
          "indexed": true,
          "internalType": "address",
          "name": "approved",
          "type": "address"
        },
        {
          "indexed": true,
          "internalType": "uint256",
          "name": "tokenId",
          "type": "uint256"
        }
      ],
      "name": "Approval",
      "type": "event"
    },
    {
      "anonymous": false,
      "inputs": [
        {
          "indexed": true,
          "internalType": "address",
          "name": "owner",
          "type": "address"
        },
        {
          "indexed": true,
          "internalType": "address",
          "name": "operator",
          "type": "address"
        },
        {
          "indexed": false,
          "internalType": "bool",
          "name": "approved",
          "type": "bool"
        }
      ],
      "name": "ApprovalForAll",
      "type": "event"
    },
    {
      "anonymous": false,
      "inputs": [
        {
          "indexed": true,
          "internalType": "address",
          "name": "previousOwner",
          "type": "address"
        },
        {
          "indexed": true,
          "internalType": "address",
          "name": "newOwner",
          "type": "address"
        }
      ],
      "name": "OwnershipTransferred",
      "type": "event"
    },
    {
      "anonymous": false,
      "inputs": [
        {
          "indexed": true,
          "internalType": "address",
          "name": "from",
          "type": "address"
        },
        {
          "indexed": true,
          "internalType": "address",
          "name": "to",
          "type": "address"
        },
        {
          "indexed": true,
          "internalType": "uint256",
          "name": "tokenId",
          "type": "uint256"
        }
      ],
      "name": "Transfer",
      "type": "event"
    },
    {
      "inputs": [
        {
          "internalType": "address",
          "name": "to",
          "type": "address"
        },
        {
          "internalType": "uint256",
          "name": "tokenId",
          "type": "uint256"
        }
      ],
      "name": "approve",
      "outputs": [],
      "stateMutability": "nonpayable",
      "type": "function"
    },
    {
      "inputs": [
        {
          "internalType": "address",
          "name": "owner",
          "type": "address"
        }
      ],
      "name": "balanceOf",
      "outputs": [
        {
          "internalType": "uint256",
          "name": "",
          "type": "uint256"
        }
      ],
      "stateMutability": "view",
      "type": "function"
    },
    {
      "inputs": [
        {
          "internalType": "uint256",
          "name": "tokenId",
          "type": "uint256"
        }
      ],
      "name": "getApproved",
      "outputs": [
        {
          "internalType": "address",
          "name": "",
          "type": "address"
        }
      ],
      "stateMutability": "view",
      "type": "function"
    },
    {
      "inputs": [
        {
          "internalType": "address",
          "name": "owner",
          "type": "address"
        },
        {
          "internalType": "address",
          "name": "operator",
          "type": "address"
        }
      ],
      "name": "isApprovedForAll",
      "outputs": [
        {
          "internalType": "bool",
          "name": "",
          "type": "bool"
        }
      ],
      "stateMutability": "view",
      "type": "function"
    },
    {
      "inputs": [],
      "name": "isPublicMintEnabled",
      "outputs": [
        {
          "internalType": "bool",
          "name": "",
          "type": "bool"
        }
      ],
      "stateMutability": "view",
      "type": "function"
    },
    {
      "inputs": [],
      "name": "maxPerWallet",
      "outputs": [
        {
          "internalType": "uint256",
          "name": "",
          "type": "uint256"
        }
      ],
      "stateMutability": "view",
      "type": "function"
    },
    {
      "inputs": [],
      "name": "maxSuplly",
      "outputs": [
        {
          "internalType": "uint256",
          "name": "",
          "type": "uint256"
        }
      ],
      "stateMutability": "view",
      "type": "function"
    },
    {
      "inputs": [
        {
          "internalType": "uint256",
          "name": "quantity_",
          "type": "uint256"
        }
      ],
      "name": "mint",
      "outputs": [],
      "stateMutability": "payable",
      "type": "function"
    },
    {
      "inputs": [],
      "name": "mintPrice",
      "outputs": [
        {
          "internalType": "uint256",
          "name": "",
          "type": "uint256"
        }
      ],
      "stateMutability": "view",
      "type": "function"
    },
    {
      "inputs": [],
      "name": "name",
      "outputs": [
        {
          "internalType": "string",
          "name": "",
          "type": "string"
        }
      ],
      "stateMutability": "view",
      "type": "function"
    },
    {
      "inputs": [],
      "name": "owner",
      "outputs": [
        {
          "internalType": "address",
          "name": "",
          "type": "address"
        }
      ],
      "stateMutability": "view",
      "type": "function"
    },
    {
      "inputs": [
        {
          "internalType": "uint256",
          "name": "tokenId",
          "type": "uint256"
        }
      ],
      "name": "ownerOf",
      "outputs": [
        {
          "internalType": "address",
          "name": "",
          "type": "address"
        }
      ],
      "stateMutability": "view",
      "type": "function"
    },
    {
      "inputs": [],
      "name": "renounceOwnership",
      "outputs": [],
      "stateMutability": "nonpayable",
      "type": "function"
    },
    {
      "inputs": [
        {
          "internalType": "address",
          "name": "from",
          "type": "address"
        },
        {
          "internalType": "address",
          "name": "to",
          "type": "address"
        },
        {
          "internalType": "uint256",
          "name": "tokenId",
          "type": "uint256"
        }
      ],
      "name": "safeTransferFrom",
      "outputs": [],
      "stateMutability": "nonpayable",
      "type": "function"
    },
    {
      "inputs": [
        {
          "internalType": "address",
          "name": "from",
          "type": "address"
        },
        {
          "internalType": "address",
          "name": "to",
          "type": "address"
        },
        {
          "internalType": "uint256",
          "name": "tokenId",
          "type": "uint256"
        },
        {
          "internalType": "bytes",
          "name": "data",
          "type": "bytes"
        }
      ],
      "name": "safeTransferFrom",
      "outputs": [],
      "stateMutability": "nonpayable",
      "type": "function"
    },
    {
      "inputs": [
        {
          "internalType": "address",
          "name": "operator",
          "type": "address"
        },
        {
          "internalType": "bool",
          "name": "approved",
          "type": "bool"
        }
      ],
      "name": "setApprovalForAll",
      "outputs": [],
      "stateMutability": "nonpayable",
      "type": "function"
    },
    {
      "inputs": [
        {
          "internalType": "string",
          "name": "baseTokenUri_",
          "type": "string"
        }
      ],
      "name": "setBaseTokenURI",
      "outputs": [],
      "stateMutability": "nonpayable",
      "type": "function"
    },
    {
      "inputs": [
        {
          "internalType": "bool",
          "name": "isPublicMintEnabled_",
          "type": "bool"
        }
      ],
      "name": "setIsPublicMintEnabled",
      "outputs": [],
      "stateMutability": "nonpayable",
      "type": "function"
    },
    {
      "inputs": [
        {
          "internalType": "bytes4",
          "name": "interfaceId",
          "type": "bytes4"
        }
      ],
      "name": "supportsInterface",
      "outputs": [
        {
          "internalType": "bool",
          "name": "",
          "type": "bool"
        }
      ],
      "stateMutability": "view",
      "type": "function"
    },
    {
      "inputs": [],
      "name": "symbol",
      "outputs": [
        {
          "internalType": "string",
          "name": "",
          "type": "string"
        }
      ],
      "stateMutability": "view",
      "type": "function"
    },
    {
      "inputs": [
        {
          "internalType": "uint256",
          "name": "tokenId_",
          "type": "uint256"
        }
      ],
      "name": "tokenURI",
      "outputs": [
        {
          "internalType": "string",
          "name": "",
          "type": "string"
        }
      ],
      "stateMutability": "view",
      "type": "function"
    },
    {
      "inputs": [],
      "name": "totalSupply",
      "outputs": [
        {
          "internalType": "uint256",
          "name": "",
          "type": "uint256"
        }
      ],
      "stateMutability": "view",
      "type": "function"
    },
    {
      "inputs": [
        {
          "internalType": "address",
          "name": "from",
          "type": "address"
        },
        {
          "internalType": "address",
          "name": "to",
          "type": "address"
        },
        {
          "internalType": "uint256",
          "name": "tokenId",
          "type": "uint256"
        }
      ],
      "name": "transferFrom",
      "outputs": [],
      "stateMutability": "nonpayable",
      "type": "function"
    },
    {
      "inputs": [
        {
          "internalType": "address",
          "name": "newOwner",
          "type": "address"
        }
      ],
      "name": "transferOwnership",
      "outputs": [],
      "stateMutability": "nonpayable",
      "type": "function"
    },
    {
      "inputs": [
        {
          "internalType": "address",
          "name": "",
          "type": "address"
        }
      ],
      "name": "walletMints",
      "outputs": [
        {
          "internalType": "uint256",
          "name": "",
          "type": "uint256"
        }
      ],
      "stateMutability": "view",
      "type": "function"
    },
    {
      "inputs": [],
      "name": "withdraw",
      "outputs": [],
      "stateMutability": "nonpayable",
      "type": "function"
    },
    {
      "inputs": [],
      "name": "withdrawWallet",
      "outputs": [
        {
          "internalType": "address payable",
          "name": "",
          "type": "address"
        }
      ],
      "stateMutability": "view",
      "type": "function"
    }
  ],
  "bytecode": "0x60806040526040518060400160405280600981526020017f526f626f50756e6b7300000000000000000000000000000000000000000000008152506040518060400160405280600281526020017f525000000000000000000000000000000000000000000000000000000000000081525081600090816200008191906200042b565b5080600190816200009391906200042b565b505050620000b6620000aa620000e360201b60201c565b620000eb60201b60201c565b66470de4df82000060078190555060006008819055506103e86009819055506003600a8190555062000512565b600033905090565b6000600660009054906101000a900473ffffffffffffffffffffffffffffffffffffffff16905081600660006101000a81548173ffffffffffffffffffffffffffffffffffffffff021916908373ffffffffffffffffffffffffffffffffffffffff1602179055508173ffffffffffffffffffffffffffffffffffffffff168173ffffffffffffffffffffffffffffffffffffffff167f8be0079c531659141344cd1fd0a4f28419497f9722a3daafe3b4186f6b6457e060405160405180910390a35050565b600081519050919050565b7f4e487b7100000000000000000000000000000000000000000000000000000000600052604160045260246000fd5b7f4e487b7100000000000000000000000000000000000000000000000000000000600052602260045260246000fd5b600060028204905060018216806200023357607f821691505b602082108103620002495762000248620001eb565b5b50919050565b60008190508160005260206000209050919050565b60006020601f8301049050919050565b600082821b905092915050565b600060088302620002b37fffffffffffffffffffffffffffffffffffffffffffffffffffffffffffffffff8262000274565b620002bf868362000274565b95508019841693508086168417925050509392505050565b6000819050919050565b6000819050919050565b60006200030c620003066200030084620002d7565b620002e1565b620002d7565b9050919050565b6000819050919050565b6200032883620002eb565b62000340620003378262000313565b84845462000281565b825550505050565b600090565b6200035762000348565b620003648184846200031d565b505050565b5b818110156200038c57620003806000826200034d565b6001810190506200036a565b5050565b601f821115620003db57620003a5816200024f565b620003b08462000264565b81016020851015620003c0578190505b620003d8620003cf8562000264565b83018262000369565b50505b505050565b600082821c905092915050565b60006200040060001984600802620003e0565b1980831691505092915050565b60006200041b8383620003ed565b9150826002028217905092915050565b6200043682620001b1565b67ffffffffffffffff811115620004525762000451620001bc565b5b6200045e82546200021a565b6200046b82828562000390565b600060209050601f831160018114620004a357600084156200048e578287015190505b6200049a85826200040d565b8655506200050a565b601f198416620004b3866200024f565b60005b82811015620004dd57848901518255600182019150602085019450602081019050620004b6565b86831015620004fd5784890151620004f9601f891682620003ed565b8355505b6001600288020188555050505b505050505050565b61381580620005226000396000f3fe60806040526004361061019c5760003560e01c80636817c76c116100ec578063a22cb4651161008a578063e985e9c511610064578063e985e9c514610593578063f0293fd3146105d0578063f2fde38b1461060d578063fbdfa8dd146106365761019c565b8063a22cb46514610504578063b88d4fde1461052d578063c87b56dd146105565761019c565b806385d178f4116100c657806385d178f4146104675780638da5cb5b1461049257806395d89b41146104bd578063a0712d68146104e85761019c565b80636817c76c146103e857806370a0823114610413578063715018a6146104505761019c565b80632373ac22116101595780633ccfd60b116101335780633ccfd60b1461034057806342842e0e14610357578063453c2310146103805780636352211e146103ab5761019c565b80632373ac22146102c557806323b872dd146102ee57806330176e13146103175761019c565b80630116bc2d146101a157806301ffc9a7146101cc57806306fdde0314610209578063081812fc14610234578063095ea7b31461027157806318160ddd1461029a575b600080fd5b3480156101ad57600080fd5b506101b6610661565b6040516101c3919061215c565b60405180910390f35b3480156101d857600080fd5b506101f360048036038101906101ee91906121e3565b610674565b604051610200919061215c565b60405180910390f35b34801561021557600080fd5b5061021e610756565b60405161022b91906122a0565b60405180910390f35b34801561024057600080fd5b5061025b600480360381019061025691906122f8565b6107e8565b6040516102689190612366565b60405180910390f35b34801561027d57600080fd5b50610298600480360381019061029391906123ad565b61082e565b005b3480156102a657600080fd5b506102af610945565b6040516102bc91906123fc565b60405180910390f35b3480156102d157600080fd5b506102ec60048036038101906102e79190612443565b61094b565b005b3480156102fa57600080fd5b5061031560048036038101906103109190612470565b610970565b005b34801561032357600080fd5b5061033e60048036038101906103399190612528565b6109d0565b005b34801561034c57600080fd5b506103556109ee565b005b34801561036357600080fd5b5061037e60048036038101906103799190612470565b610ac7565b005b34801561038c57600080fd5b50610395610ae7565b6040516103a291906123fc565b60405180910390f35b3480156103b757600080fd5b506103d260048036038101906103cd91906122f8565b610aed565b6040516103df9190612366565b60405180910390f35b3480156103f457600080fd5b506103fd610b73565b60405161040a91906123fc565b60405180910390f35b34801561041f57600080fd5b5061043a60048036038101906104359190612575565b610b79565b60405161044791906123fc565b60405180910390f35b34801561045c57600080fd5b50610465610c30565b005b34801561047357600080fd5b5061047c610c44565b60405161048991906125c3565b60405180910390f35b34801561049e57600080fd5b506104a7610c6a565b6040516104b49190612366565b60405180910390f35b3480156104c957600080fd5b506104d2610c94565b6040516104df91906122a0565b60405180910390f35b61050260048036038101906104fd91906122f8565b610d26565b005b34801561051057600080fd5b5061052b600480360381019061052691906125de565b610efd565b005b34801561053957600080fd5b50610554600480360381019061054f919061274e565b610f13565b005b34801561056257600080fd5b5061057d600480360381019061057891906122f8565b610f75565b60405161058a91906122a0565b60405180910390f35b34801561059f57600080fd5b506105ba60048036038101906105b591906127d1565b610ff1565b6040516105c7919061215c565b60405180910390f35b3480156105dc57600080fd5b506105f760048036038101906105f29190612575565b611085565b60405161060491906123fc565b60405180910390f35b34801561061957600080fd5b50610634600480360381019061062f9190612575565b61109d565b005b34801561064257600080fd5b5061064b611120565b60405161065891906123fc565b60405180910390f35b600b60009054906101000a900460ff1681565b60007f80ac58cd000000000000000000000000000000000000000000000000000000007bffffffffffffffffffffffffffffffffffffffffffffffffffffffff1916827bffffffffffffffffffffffffffffffffffffffffffffffffffffffff1916148061073f57507f5b5e139f000000000000000000000000000000000000000000000000000000007bffffffffffffffffffffffffffffffffffffffffffffffffffffffff1916827bffffffffffffffffffffffffffffffffffffffffffffffffffffffff1916145b8061074f575061074e82611126565b5b9050919050565b60606000805461076590612840565b80601f016020809104026020016040519081016040528092919081815260200182805461079190612840565b80156107de5780601f106107b3576101008083540402835291602001916107de565b820191906000526020600020905b8154815290600101906020018083116107c157829003601f168201915b5050505050905090565b60006107f382611190565b6004600083815260200190815260200160002060009054906101000a900473ffffffffffffffffffffffffffffffffffffffff169050919050565b600061083982610aed565b90508073ffffffffffffffffffffffffffffffffffffffff168373ffffffffffffffffffffffffffffffffffffffff16036108a9576040517f08c379a00000000000000000000000000000000000000000000000000000000081526004016108a0906128e3565b60405180910390fd5b8073ffffffffffffffffffffffffffffffffffffffff166108c86111db565b73ffffffffffffffffffffffffffffffffffffffff1614806108f757506108f6816108f16111db565b610ff1565b5b610936576040517f08c379a000000000000000000000000000000000000000000000000000000000815260040161092d90612975565b60405180910390fd5b61094083836111e3565b505050565b60085481565b61095361129c565b80600b60006101000a81548160ff02191690831515021790555050565b61098161097b6111db565b8261131a565b6109c0576040517f08c379a00000000000000000000000000000000000000000000000000000000081526004016109b790612a07565b60405180910390fd5b6109cb8383836113af565b505050565b6109d861129c565b8181600c91826109e9929190612bde565b505050565b6109f661129c565b6000600d60009054906101000a900473ffffffffffffffffffffffffffffffffffffffff1673ffffffffffffffffffffffffffffffffffffffff1647604051610a3e90612cdf565b60006040518083038185875af1925050503d8060008114610a7b576040519150601f19603f3d011682016040523d82523d6000602084013e610a80565b606091505b5050905080610ac4576040517f08c379a0000000000000000000000000000000000000000000000000000000008152600401610abb90612d40565b60405180910390fd5b50565b610ae283838360405180602001604052806000815250610f13565b505050565b600a5481565b600080610af9836116a8565b9050600073ffffffffffffffffffffffffffffffffffffffff168173ffffffffffffffffffffffffffffffffffffffff1603610b6a576040517f08c379a0000000000000000000000000000000000000000000000000000000008152600401610b6190612dac565b60405180910390fd5b80915050919050565b60075481565b60008073ffffffffffffffffffffffffffffffffffffffff168273ffffffffffffffffffffffffffffffffffffffff1603610be9576040517f08c379a0000000000000000000000000000000000000000000000000000000008152600401610be090612e3e565b60405180910390fd5b600360008373ffffffffffffffffffffffffffffffffffffffff1673ffffffffffffffffffffffffffffffffffffffff168152602001908152602001600020549050919050565b610c3861129c565b610c4260006116e5565b565b600d60009054906101000a900473ffffffffffffffffffffffffffffffffffffffff1681565b6000600660009054906101000a900473ffffffffffffffffffffffffffffffffffffffff16905090565b606060018054610ca390612840565b80601f0160208091040260200160405190810160405280929190818152602001828054610ccf90612840565b8015610d1c5780601f10610cf157610100808354040283529160200191610d1c565b820191906000526020600020905b815481529060010190602001808311610cff57829003601f168201915b5050505050905090565b600b60009054906101000a900460ff16610d75576040517f08c379a0000000000000000000000000000000000000000000000000000000008152600401610d6c90612eaa565b60405180910390fd5b60075481610d839190612ef9565b3414610dc4576040517f08c379a0000000000000000000000000000000000000000000000000000000008152600401610dbb90612f87565b60405180910390fd5b60095481600854610dd59190612fa7565b1115610e16576040517f08c379a0000000000000000000000000000000000000000000000000000000008152600401610e0d90613027565b60405180910390fd5b600a5481600e60003373ffffffffffffffffffffffffffffffffffffffff1673ffffffffffffffffffffffffffffffffffffffff16815260200190815260200160002054610e649190612fa7565b1115610ea5576040517f08c379a0000000000000000000000000000000000000000000000000000000008152600401610e9c90613093565b60405180910390fd5b60005b81811015610ef95760006001600854610ec19190612fa7565b905060086000815480929190610ed6906130b3565b9190505550610ee533826117ab565b508080610ef1906130b3565b915050610ea8565b5050565b610f0f610f086111db565b83836117c9565b5050565b610f24610f1e6111db565b8361131a565b610f63576040517f08c379a0000000000000000000000000000000000000000000000000000000008152600401610f5a90612a07565b60405180910390fd5b610f6f84848484611935565b50505050565b6060610f8082611991565b610fbf576040517f08c379a0000000000000000000000000000000000000000000000000000000008152600401610fb690613147565b60405180910390fd5b600c610fca836119d2565b604051602001610fdb929190613272565b6040516020818303038152906040529050919050565b6000600560008473ffffffffffffffffffffffffffffffffffffffff1673ffffffffffffffffffffffffffffffffffffffff16815260200190815260200160002060008373ffffffffffffffffffffffffffffffffffffffff1673ffffffffffffffffffffffffffffffffffffffff16815260200190815260200160002060009054906101000a900460ff16905092915050565b600e6020528060005260406000206000915090505481565b6110a561129c565b600073ffffffffffffffffffffffffffffffffffffffff168173ffffffffffffffffffffffffffffffffffffffff1603611114576040517f08c379a000000000000000000000000000000000000000000000000000000000815260040161110b90613313565b60405180910390fd5b61111d816116e5565b50565b60095481565b60007f01ffc9a7000000000000000000000000000000000000000000000000000000007bffffffffffffffffffffffffffffffffffffffffffffffffffffffff1916827bffffffffffffffffffffffffffffffffffffffffffffffffffffffff1916149050919050565b61119981611991565b6111d8576040517f08c379a00000000000000000000000000000000000000000000000000000000081526004016111cf90612dac565b60405180910390fd5b50565b600033905090565b816004600083815260200190815260200160002060006101000a81548173ffffffffffffffffffffffffffffffffffffffff021916908373ffffffffffffffffffffffffffffffffffffffff160217905550808273ffffffffffffffffffffffffffffffffffffffff1661125683610aed565b73ffffffffffffffffffffffffffffffffffffffff167f8c5be1e5ebec7d5bd14f71427d1e84f3dd0314c0f7b2291e5b200ac8c7c3b92560405160405180910390a45050565b6112a46111db565b73ffffffffffffffffffffffffffffffffffffffff166112c2610c6a565b73ffffffffffffffffffffffffffffffffffffffff1614611318576040517f08c379a000000000000000000000000000000000000000000000000000000000815260040161130f9061337f565b60405180910390fd5b565b60008061132683610aed565b90508073ffffffffffffffffffffffffffffffffffffffff168473ffffffffffffffffffffffffffffffffffffffff16148061136857506113678185610ff1565b5b806113a657508373ffffffffffffffffffffffffffffffffffffffff1661138e846107e8565b73ffffffffffffffffffffffffffffffffffffffff16145b91505092915050565b8273ffffffffffffffffffffffffffffffffffffffff166113cf82610aed565b73ffffffffffffffffffffffffffffffffffffffff1614611425576040517f08c379a000000000000000000000000000000000000000000000000000000000815260040161141c90613411565b60405180910390fd5b600073ffffffffffffffffffffffffffffffffffffffff168273ffffffffffffffffffffffffffffffffffffffff1603611494576040517f08c379a000000000000000000000000000000000000000000000000000000000815260040161148b906134a3565b60405180910390fd5b6114a18383836001611aa0565b8273ffffffffffffffffffffffffffffffffffffffff166114c182610aed565b73ffffffffffffffffffffffffffffffffffffffff1614611517576040517f08c379a000000000000000000000000000000000000000000000000000000000815260040161150e90613411565b60405180910390fd5b6004600082815260200190815260200160002060006101000a81549073ffffffffffffffffffffffffffffffffffffffff02191690556001600360008573ffffffffffffffffffffffffffffffffffffffff1673ffffffffffffffffffffffffffffffffffffffff168152602001908152602001600020600082825403925050819055506001600360008473ffffffffffffffffffffffffffffffffffffffff1673ffffffffffffffffffffffffffffffffffffffff16815260200190815260200160002060008282540192505081905550816002600083815260200190815260200160002060006101000a81548173ffffffffffffffffffffffffffffffffffffffff021916908373ffffffffffffffffffffffffffffffffffffffff160217905550808273ffffffffffffffffffffffffffffffffffffffff168473ffffffffffffffffffffffffffffffffffffffff167fddf252ad1be2c89b69c2b068fc378daa952ba7f163c4a11628f55a4df523b3ef60405160405180910390a46116a38383836001611bc6565b505050565b60006002600083815260200190815260200160002060009054906101000a900473ffffffffffffffffffffffffffffffffffffffff169050919050565b6000600660009054906101000a900473ffffffffffffffffffffffffffffffffffffffff16905081600660006101000a81548173ffffffffffffffffffffffffffffffffffffffff021916908373ffffffffffffffffffffffffffffffffffffffff1602179055508173ffffffffffffffffffffffffffffffffffffffff168173ffffffffffffffffffffffffffffffffffffffff167f8be0079c531659141344cd1fd0a4f28419497f9722a3daafe3b4186f6b6457e060405160405180910390a35050565b6117c5828260405180602001604052806000815250611bcc565b5050565b8173ffffffffffffffffffffffffffffffffffffffff168373ffffffffffffffffffffffffffffffffffffffff1603611837576040517f08c379a000000000000000000000000000000000000000000000000000000000815260040161182e9061350f565b60405180910390fd5b80600560008573ffffffffffffffffffffffffffffffffffffffff1673ffffffffffffffffffffffffffffffffffffffff16815260200190815260200160002060008473ffffffffffffffffffffffffffffffffffffffff1673ffffffffffffffffffffffffffffffffffffffff16815260200190815260200160002060006101000a81548160ff0219169083151502179055508173ffffffffffffffffffffffffffffffffffffffff168373ffffffffffffffffffffffffffffffffffffffff167f17307eab39ab6107e8899845ad3d59bd9653f200f220920489ca2b5937696c3183604051611928919061215c565b60405180910390a3505050565b6119408484846113af565b61194c84848484611c27565b61198b576040517f08c379a0000000000000000000000000000000000000000000000000000000008152600401611982906135a1565b60405180910390fd5b50505050565b60008073ffffffffffffffffffffffffffffffffffffffff166119b3836116a8565b73ffffffffffffffffffffffffffffffffffffffff1614159050919050565b6060600060016119e184611dae565b01905060008167ffffffffffffffff811115611a00576119ff612623565b5b6040519080825280601f01601f191660200182016040528015611a325781602001600182028036833780820191505090505b509050600082602001820190505b600115611a95578080600190039150507f3031323334353637383961626364656600000000000000000000000000000000600a86061a8153600a8581611a8957611a886135c1565b5b04945060008503611a40575b819350505050919050565b6001811115611bc057600073ffffffffffffffffffffffffffffffffffffffff168473ffffffffffffffffffffffffffffffffffffffff1614611b345780600360008673ffffffffffffffffffffffffffffffffffffffff1673ffffffffffffffffffffffffffffffffffffffff1681526020019081526020016000206000828254611b2c91906135f0565b925050819055505b600073ffffffffffffffffffffffffffffffffffffffff168373ffffffffffffffffffffffffffffffffffffffff1614611bbf5780600360008573ffffffffffffffffffffffffffffffffffffffff1673ffffffffffffffffffffffffffffffffffffffff1681526020019081526020016000206000828254611bb79190612fa7565b925050819055505b5b50505050565b50505050565b611bd68383611f01565b611be36000848484611c27565b611c22576040517f08c379a0000000000000000000000000000000000000000000000000000000008152600401611c19906135a1565b60405180910390fd5b505050565b6000611c488473ffffffffffffffffffffffffffffffffffffffff1661211e565b15611da1578373ffffffffffffffffffffffffffffffffffffffff1663150b7a02611c716111db565b8786866040518563ffffffff1660e01b8152600401611c939493929190613679565b6020604051808303816000875af1925050508015611ccf57506040513d601f19601f82011682018060405250810190611ccc91906136da565b60015b611d51573d8060008114611cff576040519150601f19603f3d011682016040523d82523d6000602084013e611d04565b606091505b506000815103611d49576040517f08c379a0000000000000000000000000000000000000000000000000000000008152600401611d40906135a1565b60405180910390fd5b805181602001fd5b63150b7a0260e01b7bffffffffffffffffffffffffffffffffffffffffffffffffffffffff1916817bffffffffffffffffffffffffffffffffffffffffffffffffffffffff191614915050611da6565b600190505b949350505050565b600080600090507a184f03e93ff9f4daa797ed6e38ed64bf6a1f0100000000000000008310611e0c577a184f03e93ff9f4daa797ed6e38ed64bf6a1f0100000000000000008381611e0257611e016135c1565b5b0492506040810190505b6d04ee2d6d415b85acef81000000008310611e49576d04ee2d6d415b85acef81000000008381611e3f57611e3e6135c1565b5b0492506020810190505b662386f26fc100008310611e7857662386f26fc100008381611e6e57611e6d6135c1565b5b0492506010810190505b6305f5e1008310611ea1576305f5e1008381611e9757611e966135c1565b5b0492506008810190505b6127108310611ec6576127108381611ebc57611ebb6135c1565b5b0492506004810190505b60648310611ee95760648381611edf57611ede6135c1565b5b0492506002810190505b600a8310611ef8576001810190505b80915050919050565b600073ffffffffffffffffffffffffffffffffffffffff168273ffffffffffffffffffffffffffffffffffffffff1603611f70576040517f08c379a0000000000000000000000000000000000000000000000000000000008152600401611f6790613753565b60405180910390fd5b611f7981611991565b15611fb9576040517f08c379a0000000000000000000000000000000000000000000000000000000008152600401611fb0906137bf565b60405180910390fd5b611fc7600083836001611aa0565b611fd081611991565b15612010576040517f08c379a0000000000000000000000000000000000000000000000000000000008152600401612007906137bf565b60405180910390fd5b6001600360008473ffffffffffffffffffffffffffffffffffffffff1673ffffffffffffffffffffffffffffffffffffffff16815260200190815260200160002060008282540192505081905550816002600083815260200190815260200160002060006101000a81548173ffffffffffffffffffffffffffffffffffffffff021916908373ffffffffffffffffffffffffffffffffffffffff160217905550808273ffffffffffffffffffffffffffffffffffffffff16600073ffffffffffffffffffffffffffffffffffffffff167fddf252ad1be2c89b69c2b068fc378daa952ba7f163c4a11628f55a4df523b3ef60405160405180910390a461211a600083836001611bc6565b5050565b6000808273ffffffffffffffffffffffffffffffffffffffff163b119050919050565b60008115159050919050565b61215681612141565b82525050565b6000602082019050612171600083018461214d565b92915050565b6000604051905090565b600080fd5b600080fd5b60007fffffffff0000000000000000000000000000000000000000000000000000000082169050919050565b6121c08161218b565b81146121cb57600080fd5b50565b6000813590506121dd816121b7565b92915050565b6000602082840312156121f9576121f8612181565b5b6000612207848285016121ce565b91505092915050565b600081519050919050565b600082825260208201905092915050565b60005b8381101561224a57808201518184015260208101905061222f565b60008484015250505050565b6000601f19601f8301169050919050565b600061227282612210565b61227c818561221b565b935061228c81856020860161222c565b61229581612256565b840191505092915050565b600060208201905081810360008301526122ba8184612267565b905092915050565b6000819050919050565b6122d5816122c2565b81146122e057600080fd5b50565b6000813590506122f2816122cc565b92915050565b60006020828403121561230e5761230d612181565b5b600061231c848285016122e3565b91505092915050565b600073ffffffffffffffffffffffffffffffffffffffff82169050919050565b600061235082612325565b9050919050565b61236081612345565b82525050565b600060208201905061237b6000830184612357565b92915050565b61238a81612345565b811461239557600080fd5b50565b6000813590506123a781612381565b92915050565b600080604083850312156123c4576123c3612181565b5b60006123d285828601612398565b92505060206123e3858286016122e3565b9150509250929050565b6123f6816122c2565b82525050565b600060208201905061241160008301846123ed565b92915050565b61242081612141565b811461242b57600080fd5b50565b60008135905061243d81612417565b92915050565b60006020828403121561245957612458612181565b5b60006124678482850161242e565b91505092915050565b60008060006060848603121561248957612488612181565b5b600061249786828701612398565b93505060206124a886828701612398565b92505060406124b9868287016122e3565b9150509250925092565b600080fd5b600080fd5b600080fd5b60008083601f8401126124e8576124e76124c3565b5b8235905067ffffffffffffffff811115612505576125046124c8565b5b602083019150836001820283011115612521576125206124cd565b5b9250929050565b6000806020838503121561253f5761253e612181565b5b600083013567ffffffffffffffff81111561255d5761255c612186565b5b612569858286016124d2565b92509250509250929050565b60006020828403121561258b5761258a612181565b5b600061259984828501612398565b91505092915050565b60006125ad82612325565b9050919050565b6125bd816125a2565b82525050565b60006020820190506125d860008301846125b4565b92915050565b600080604083850312156125f5576125f4612181565b5b600061260385828601612398565b92505060206126148582860161242e565b9150509250929050565b600080fd5b7f4e487b7100000000000000000000000000000000000000000000000000000000600052604160045260246000fd5b61265b82612256565b810181811067ffffffffffffffff8211171561267a57612679612623565b5b80604052505050565b600061268d612177565b90506126998282612652565b919050565b600067ffffffffffffffff8211156126b9576126b8612623565b5b6126c282612256565b9050602081019050919050565b82818337600083830152505050565b60006126f16126ec8461269e565b612683565b90508281526020810184848401111561270d5761270c61261e565b5b6127188482856126cf565b509392505050565b600082601f830112612735576127346124c3565b5b81356127458482602086016126de565b91505092915050565b6000806000806080858703121561276857612767612181565b5b600061277687828801612398565b945050602061278787828801612398565b9350506040612798878288016122e3565b925050606085013567ffffffffffffffff8111156127b9576127b8612186565b5b6127c587828801612720565b91505092959194509250565b600080604083850312156127e8576127e7612181565b5b60006127f685828601612398565b925050602061280785828601612398565b9150509250929050565b7f4e487b7100000000000000000000000000000000000000000000000000000000600052602260045260246000fd5b6000600282049050600182168061285857607f821691505b60208210810361286b5761286a612811565b5b50919050565b7f4552433732313a20617070726f76616c20746f2063757272656e74206f776e6560008201527f7200000000000000000000000000000000000000000000000000000000000000602082015250565b60006128cd60218361221b565b91506128d882612871565b604082019050919050565b600060208201905081810360008301526128fc816128c0565b9050919050565b7f4552433732313a20617070726f76652063616c6c6572206973206e6f7420746f60008201527f6b656e206f776e6572206f7220617070726f76656420666f7220616c6c000000602082015250565b600061295f603d8361221b565b915061296a82612903565b604082019050919050565b6000602082019050818103600083015261298e81612952565b9050919050565b7f4552433732313a2063616c6c6572206973206e6f7420746f6b656e206f776e6560008201527f72206f7220617070726f76656400000000000000000000000000000000000000602082015250565b60006129f1602d8361221b565b91506129fc82612995565b604082019050919050565b60006020820190508181036000830152612a20816129e4565b9050919050565b600082905092915050565b60008190508160005260206000209050919050565b60006020601f8301049050919050565b600082821b905092915050565b600060088302612a947fffffffffffffffffffffffffffffffffffffffffffffffffffffffffffffffff82612a57565b612a9e8683612a57565b95508019841693508086168417925050509392505050565b6000819050919050565b6000612adb612ad6612ad1846122c2565b612ab6565b6122c2565b9050919050565b6000819050919050565b612af583612ac0565b612b09612b0182612ae2565b848454612a64565b825550505050565b600090565b612b1e612b11565b612b29818484612aec565b505050565b5b81811015612b4d57612b42600082612b16565b600181019050612b2f565b5050565b601f821115612b9257612b6381612a32565b612b6c84612a47565b81016020851015612b7b578190505b612b8f612b8785612a47565b830182612b2e565b50505b505050565b600082821c905092915050565b6000612bb560001984600802612b97565b1980831691505092915050565b6000612bce8383612ba4565b9150826002028217905092915050565b612be88383612a27565b67ffffffffffffffff811115612c0157612c00612623565b5b612c0b8254612840565b612c16828285612b51565b6000601f831160018114612c455760008415612c33578287013590505b612c3d8582612bc2565b865550612ca5565b601f198416612c5386612a32565b60005b82811015612c7b57848901358255600182019150602085019450602081019050612c56565b86831015612c985784890135612c94601f891682612ba4565b8355505b6001600288020188555050505b50505050505050565b600081905092915050565b50565b6000612cc9600083612cae565b9150612cd482612cb9565b600082019050919050565b6000612cea82612cbc565b9150819050919050565b7f7769746864726177206661696c65640000000000000000000000000000000000600082015250565b6000612d2a600f8361221b565b9150612d3582612cf4565b602082019050919050565b60006020820190508181036000830152612d5981612d1d565b9050919050565b7f4552433732313a20696e76616c696420746f6b656e2049440000000000000000600082015250565b6000612d9660188361221b565b9150612da182612d60565b602082019050919050565b60006020820190508181036000830152612dc581612d89565b9050919050565b7f4552433732313a2061646472657373207a65726f206973206e6f74206120766160008201527f6c6964206f776e65720000000000000000000000000000000000000000000000602082015250565b6000612e2860298361221b565b9150612e3382612dcc565b604082019050919050565b60006020820190508181036000830152612e5781612e1b565b9050919050565b7f6d696e74696e67206e6f7420656e61626c656400000000000000000000000000600082015250565b6000612e9460138361221b565b9150612e9f82612e5e565b602082019050919050565b60006020820190508181036000830152612ec381612e87565b9050919050565b7f4e487b7100000000000000000000000000000000000000000000000000000000600052601160045260246000fd5b6000612f04826122c2565b9150612f0f836122c2565b9250828202612f1d816122c2565b91508282048414831517612f3457612f33612eca565b5b5092915050565b7f77726f6e67206d696e742076616c756500000000000000000000000000000000600082015250565b6000612f7160108361221b565b9150612f7c82612f3b565b602082019050919050565b60006020820190508181036000830152612fa081612f64565b9050919050565b6000612fb2826122c2565b9150612fbd836122c2565b9250828201905080821115612fd557612fd4612eca565b5b92915050565b7f736f6c64206f7574000000000000000000000000000000000000000000000000600082015250565b600061301160088361221b565b915061301c82612fdb565b602082019050919050565b6000602082019050818103600083015261304081613004565b9050919050565b7f657863656564206d61782077616c6c6574000000000000000000000000000000600082015250565b600061307d60118361221b565b915061308882613047565b602082019050919050565b600060208201905081810360008301526130ac81613070565b9050919050565b60006130be826122c2565b91507fffffffffffffffffffffffffffffffffffffffffffffffffffffffffffffffff82036130f0576130ef612eca565b5b600182019050919050565b7f546f6b656e20646f6573206e6f74206578697374210000000000000000000000600082015250565b600061313160158361221b565b915061313c826130fb565b602082019050919050565b6000602082019050818103600083015261316081613124565b9050919050565b600081905092915050565b6000815461317f81612840565b6131898186613167565b945060018216600081146131a457600181146131b9576131ec565b60ff19831686528115158202860193506131ec565b6131c285612a32565b60005b838110156131e4578154818901526001820191506020810190506131c5565b838801955050505b50505092915050565b600061320082612210565b61320a8185613167565b935061321a81856020860161222c565b80840191505092915050565b7f2e6a736f6e000000000000000000000000000000000000000000000000000000600082015250565b600061325c600583613167565b915061326782613226565b600582019050919050565b600061327e8285613172565b915061328a82846131f5565b91506132958261324f565b91508190509392505050565b7f4f776e61626c653a206e6577206f776e657220697320746865207a65726f206160008201527f6464726573730000000000000000000000000000000000000000000000000000602082015250565b60006132fd60268361221b565b9150613308826132a1565b604082019050919050565b6000602082019050818103600083015261332c816132f0565b9050919050565b7f4f776e61626c653a2063616c6c6572206973206e6f7420746865206f776e6572600082015250565b600061336960208361221b565b915061337482613333565b602082019050919050565b600060208201905081810360008301526133988161335c565b9050919050565b7f4552433732313a207472616e736665722066726f6d20696e636f72726563742060008201527f6f776e6572000000000000000000000000000000000000000000000000000000602082015250565b60006133fb60258361221b565b91506134068261339f565b604082019050919050565b6000602082019050818103600083015261342a816133ee565b9050919050565b7f4552433732313a207472616e7366657220746f20746865207a65726f2061646460008201527f7265737300000000000000000000000000000000000000000000000000000000602082015250565b600061348d60248361221b565b915061349882613431565b604082019050919050565b600060208201905081810360008301526134bc81613480565b9050919050565b7f4552433732313a20617070726f766520746f2063616c6c657200000000000000600082015250565b60006134f960198361221b565b9150613504826134c3565b602082019050919050565b60006020820190508181036000830152613528816134ec565b9050919050565b7f4552433732313a207472616e7366657220746f206e6f6e20455243373231526560008201527f63656976657220696d706c656d656e7465720000000000000000000000000000602082015250565b600061358b60328361221b565b91506135968261352f565b604082019050919050565b600060208201905081810360008301526135ba8161357e565b9050919050565b7f4e487b7100000000000000000000000000000000000000000000000000000000600052601260045260246000fd5b60006135fb826122c2565b9150613606836122c2565b925082820390508181111561361e5761361d612eca565b5b92915050565b600081519050919050565b600082825260208201905092915050565b600061364b82613624565b613655818561362f565b935061366581856020860161222c565b61366e81612256565b840191505092915050565b600060808201905061368e6000830187612357565b61369b6020830186612357565b6136a860408301856123ed565b81810360608301526136ba8184613640565b905095945050505050565b6000815190506136d4816121b7565b92915050565b6000602082840312156136f0576136ef612181565b5b60006136fe848285016136c5565b91505092915050565b7f4552433732313a206d696e7420746f20746865207a65726f2061646472657373600082015250565b600061373d60208361221b565b915061374882613707565b602082019050919050565b6000602082019050818103600083015261376c81613730565b9050919050565b7f4552433732313a20746f6b656e20616c7265616479206d696e74656400000000600082015250565b60006137a9601c8361221b565b91506137b482613773565b602082019050919050565b600060208201905081810360008301526137d88161379c565b905091905056fea26469706673582212207c2eb82cd411f3649272ccbe2a99206fa3ac336c37e9082e3f44703bf166355264736f6c63430008110033",
  "linkReferences": {},
  "deployedLinkReferences": {}
}